{"abi":[{"type":"constructor","inputs":[{"name":"_relay","type":"address","internalType":"contract IRelay"},{"name":"_usdtContractAddress","type":"address","internalType":"address"}],"stateMutability":"nonpayable"},{"type":"function","name":"acceptBtcSellOrder","inputs":[{"name":"id","type":"uint256","internalType":"uint256"},{"name":"bitcoinAddress","type":"tuple","internalType":"struct HelloBitcoin.BitcoinAddress","components":[{"name":"scriptPubKey","type":"bytes","internalType":"bytes"}]}],"outputs":[],"stateMutability":"nonpayable"},{"type":"function","name":"acceptOrdinalSellOrder","inputs":[{"name":"id","type":"uint256","internalType":"uint256"},{"name":"bitcoinAddress","type":"tuple","internalType":"struct HelloBitcoin.BitcoinAddress","components":[{"name":"scriptPubKey","type":"bytes","internalType":"bytes"}]}],"outputs":[],"stateMutability":"nonpayable"},{"type":"function","name":"btcSellOrders","inputs":[{"name":"","type":"uint256","internalType":"uint256"}],"outputs":[{"name":"sellAmountBtc","type":"uint256","internalType":"uint256"},{"name":"buyAmount","type":"uint256","internalType":"uint256"},{"name":"btcSeller","type":"address","internalType":"address"},{"name":"btcBuyer","type":"tuple","internalType":"struct HelloBitcoin.BitcoinAddress","components":[{"name":"scriptPubKey","type":"bytes","internalType":"bytes"}]},{"name":"isOrderAccepted","type":"bool","internalType":"bool"}],"stateMutability":"view"},{"type":"function","name":"completeBtcSellOrder","inputs":[{"name":"id","type":"uint256","internalType":"uint256"},{"name":"transaction","type":"tuple","internalType":"struct BitcoinTx.Info","components":[{"name":"version","type":"bytes4","internalType":"bytes4"},{"name":"inputVector","type":"bytes","internalType":"bytes"},{"name":"outputVector","type":"bytes","internalType":"bytes"},{"name":"locktime","type":"bytes4","internalType":"bytes4"}]},{"name":"proof","type":"tuple","internalType":"struct BitcoinTx.Proof","components":[{"name":"merkleProof","type":"bytes","internalType":"bytes"},{"name":"txIndexInBlock","type":"uint256","internalType":"uint256"},{"name":"bitcoinHeaders","type":"bytes","internalType":"bytes"}]}],"outputs":[],"stateMutability":"nonpayable"},{"type":"function","name":"completeOrdinalSellOrder","inputs":[{"name":"id","type":"uint256","internalType":"uint256"},{"name":"transaction","type":"tuple","internalType":"struct BitcoinTx.Info","components":[{"name":"version","type":"bytes4","internalType":"bytes4"},{"name":"inputVector","type":"bytes","internalType":"bytes"},{"name":"outputVector","type":"bytes","internalType":"bytes"},{"name":"locktime","type":"bytes4","internalType":"bytes4"}]},{"name":"proof","type":"tuple","internalType":"struct BitcoinTx.Proof","components":[{"name":"merkleProof","type":"bytes","internalType":"bytes"},{"name":"txIndexInBlock","type":"uint256","internalType":"uint256"},{"name":"bitcoinHeaders","type":"bytes","internalType":"bytes"}]}],"outputs":[],"stateMutability":"nonpayable"},{"type":"function","name":"ordinalSellOrders","inputs":[{"name":"","type":"uint256","internalType":"uint256"}],"outputs":[{"name":"ordinalID","type":"tuple","internalType":"struct HelloBitcoin.OrdinalId","components":[{"name":"txId","type":"bytes32","internalType":"bytes32"},{"name":"index","type":"uint32","internalType":"uint32"}]},{"name":"buyAmount","type":"uint256","internalType":"uint256"},{"name":"utxo","type":"tuple","internalType":"struct BitcoinTx.UTXO","components":[{"name":"txHash","type":"bytes32","internalType":"bytes32"},{"name":"txOutputIndex","type":"uint32","internalType":"uint32"},{"name":"txOutputValue","type":"uint64","internalType":"uint64"}]},{"name":"ordinalSeller","type":"address","internalType":"address"},{"name":"ordinalBuyer","type":"tuple","internalType":"struct HelloBitcoin.BitcoinAddress","components":[{"name":"scriptPubKey","type":"bytes","internalType":"bytes"}]},{"name":"isOrderAccepted","type":"bool","internalType":"bool"}],"stateMutability":"view"},{"type":"function","name":"placeBtcSellOrder","inputs":[{"name":"sellAmountBtc","type":"uint256","internalType":"uint256"},{"name":"buyAmount","type":"uint256","internalType":"uint256"}],"outputs":[],"stateMutability":"nonpayable"},{"type":"function","name":"placeOrdinalSellOrder","inputs":[{"name":"ordinalID","type":"tuple","internalType":"struct HelloBitcoin.OrdinalId","components":[{"name":"txId","type":"bytes32","internalType":"bytes32"},{"name":"index","type":"uint32","internalType":"uint32"}]},{"name":"utxo","type":"tuple","internalType":"struct BitcoinTx.UTXO","components":[{"name":"txHash","type":"bytes32","internalType":"bytes32"},{"name":"txOutputIndex","type":"uint32","internalType":"uint32"},{"name":"txOutputValue","type":"uint64","internalType":"uint64"}]},{"name":"buyAmount","type":"uint256","internalType":"uint256"}],"outputs":[],"stateMutability":"nonpayable"},{"type":"function","name":"usdtContractAddress","inputs":[],"outputs":[{"name":"","type":"address","internalType":"contract IERC20"}],"stateMutability":"view"},{"type":"event","name":"btcSellOrderBtcSellOrderAccepted","inputs":[{"name":"id","type":"uint256","indexed":true,"internalType":"uint256"},{"name":"bitcoinAddress","type":"tuple","indexed":false,"internalType":"struct HelloBitcoin.BitcoinAddress","components":[{"name":"scriptPubKey","type":"bytes","internalType":"bytes"}]}],"anonymous":false},{"type":"event","name":"btcSellOrderSuccessfullyPlaced","inputs":[{"name":"orderId","type":"uint256","indexed":true,"internalType":"uint256"},{"name":"sellAmountBtc","type":"uint256","indexed":false,"internalType":"uint256"},{"name":"buyAmount","type":"uint256","indexed":false,"internalType":"uint256"}],"anonymous":false},{"type":"event","name":"btcSuccessfullySendtoDestination","inputs":[{"name":"id","type":"uint256","indexed":false,"internalType":"uint256"}],"anonymous":false},{"type":"event","name":"ordinalSellOrderBtcSellOrderAccepted","inputs":[{"name":"id","type":"uint256","indexed":true,"internalType":"uint256"},{"name":"bitcoinAddress","type":"tuple","indexed":false,"internalType":"struct HelloBitcoin.BitcoinAddress","components":[{"name":"scriptPubKey","type":"bytes","internalType":"bytes"}]}],"anonymous":false},{"type":"event","name":"ordinalSellOrderSuccessfullyPlaced","inputs":[{"name":"id","type":"uint256","indexed":true,"internalType":"uint256"},{"name":"ordinalID","type":"tuple","indexed":false,"internalType":"struct HelloBitcoin.OrdinalId","components":[{"name":"txId","type":"bytes32","internalType":"bytes32"},{"name":"index","type":"uint32","internalType":"uint32"}]},{"name":"buyAmount","type":"uint256","indexed":false,"internalType":"uint256"}],"anonymous":false},{"type":"event","name":"ordinalSuccessfullySendtoDestination","inputs":[{"name":"id","type":"uint256","indexed":false,"internalType":"uint256"}],"anonymous":false}],"bytecode":{"object":"0x60806040523480156200001157600080fd5b506040516200308c3803806200308c83398101604081905262000034916200008b565b600160a01b6001600160a01b03928316908117600555600680546001600160a01b0319908116909217905560028054929093169116179055620000ca565b6001600160a01b03811681146200008857600080fd5b50565b600080604083850312156200009f57600080fd5b8251620000ac8162000072565b6020840151909250620000bf8162000072565b809150509250929050565b612fb280620000da6000396000f3fe608060405234801561001057600080fd5b50600436106100935760003560e01c806387f994301161006657806387f99430146101195780638cffc5961461012c578063ecca2c361461013f578063fe5e30b414610163578063febf17221461017657600080fd5b80632814a1cd146100985780632b260fa0146100ad578063388c54de146100db5780637c420eef14610106575b600080fd5b6100ab6100a6366004612389565b610189565b005b6100c06100bb3660046123d6565b61026a565b6040516100d29695949392919061243f565b60405180910390f35b6002546100ee906001600160a01b031681565b6040516001600160a01b0390911681526020016100d2565b6100ab6101143660046124dd565b61038f565b6100ab610127366004612389565b610561565b6100ab61013a3660046124dd565b610637565b61015261014d3660046123d6565b6108a2565b6040516100d2959493929190612551565b6100ab61017136600461259c565b610977565b6100ab6101843660046125be565b610b71565b6000828152600160205260409020600781015460ff16156101ea5760405162461bcd60e51b815260206004820152601660248201527513dc99195c88185b1c9958591e481858d8d95c1d195960521b60448201526064015b60405180910390fd5b600280820154905461020b916001600160a01b039091169033903090610dad565b816006820161021a82826126e1565b505060078101805460ff1916600117905560405183907f8cd2a9efbe6c0092060423d0d0786e2a14b5c530e30a7a16a095fb5743946e079061025d9085906127f9565b60405180910390a2505050565b60016020818152600092835260409283902083518085018552815481529281015463ffffffff9081168484015260028201548551606081018752600384015481526004840154928316818601526401000000009092046001600160401b031682870152600583015486519485019096526006830180549596919592946001600160a01b039092169392829082906103009061265f565b80601f016020809104026020016040519081016040528092919081815260200182805461032c9061265f565b80156103795780601f1061034e57610100808354040283529160200191610379565b820191906000526020600020905b81548152906001019060200180831161035c57829003601f168201915b5050509190925250505060079091015460ff1686565b6000838152602081905260409020600481015460ff1615156001146103ef5760405162461bcd60e51b815260206004820152601660248201527513dc99195c881b5d5cdd081899481858d8d95c1d195960521b60448201526064016101e1565b60028101546001600160a01b0316331461041b5760405162461bcd60e51b81526004016101e190612852565b6006546001600160a01b031663d38c29a16104396040850185612603565b6040518363ffffffff1660e01b815260040161045692919061289c565b600060405180830381600087803b15801561047057600080fd5b505af1158015610484573d6000803e3d6000fd5b505050506104a78361049590612959565b61049e84612a00565b60059190610e1e565b5080546104b8906003830185610fb9565b600280820154600183015491546104df926001600160a01b039182169291909116906110cc565b6000848152602081905260408120818155600181018290556002810180546001600160a01b03191690559060038201816105198282612333565b505050600401805460ff191690556040518481527f8af87c8db499df3b4ca0cb6d84f300c9f122533feb0b711986dab3690e4eae5d906020015b60405180910390a150505050565b6000828152602081905260409020600481015460ff16156105c45760405162461bcd60e51b815260206004820152601f60248201527f4f726465722068617320616c7265616479206265656e2061636365707465640060448201526064016101e1565b60018101546002546105e5916001600160a01b039091169033903090610dad565b81600382016105f482826126e1565b505060048101805460ff1916600117905560405183907fc7109ddd294edd7d3bfd4ebba47c6869dba5481447dbb5813be8262d85ebc22d9061025d9085906127f9565b60008381526001602081905260409091206007810154909160ff90911615151461069c5760405162461bcd60e51b815260206004820152601660248201527513dc99195c881b5d5cdd081899481858d8d95c1d195960521b60448201526064016101e1565b60058101546001600160a01b031633146106c85760405162461bcd60e51b81526004016101e190612852565b6006546001600160a01b031663d38c29a16106e66040850185612603565b6040518363ffffffff1660e01b815260040161070392919061289c565b600060405180830381600087803b15801561071d57600080fd5b505af1158015610731573d6000803e3d6000fd5b505050506107428361049590612959565b506107c86107536020850185612603565b8080601f016020809104026020016040519081016040528093929190818152602001838380828437600092019190915250506040805160608101825260038701548152600487015463ffffffff8116602083015264010000000090046001600160401b03169181019190915291506111019050565b6107d760008260060185610fb9565b600581015460028083015490546107fc926001600160a01b03918216929116906110cc565b60008481526001602081905260408220828155908101805463ffffffff1916905560028101829055600381018290556004810180546bffffffffffffffffffffffff191690556005810180546001600160a01b03191690559060068201816108648282612333565b505050600701805460ff191690556040518481527fe9986e4f638a64094b13d3d0df3109c04dac79f18bde13b2eeb029b1fbf3f38690602001610553565b600060208181529181526040908190208054600182015460028301548451958601909452600383018054929591946001600160a01b03169392829082906108e89061265f565b80601f01602080910402602001604051908101604052809291908181526020018280546109149061265f565b80156109615780601f1061093657610100808354040283529160200191610961565b820191906000526020600020905b81548152906001019060200180831161094457829003601f168201915b5050509190925250505060049091015460ff1685565b600082116109d25760405162461bcd60e51b815260206004820152602260248201527f53656c6c20616d6f756e74206d7573742062652067726561746572207468616e604482015261020360f41b60648201526084016101e1565b60008111610a2c5760405162461bcd60e51b815260206004820152602160248201527f42757920616d6f756e74206d7573742062652067726561746572207468616e206044820152600360fc1b60648201526084016101e1565b6003805460009182610a3d83612aa5565b9190505590506040518060a00160405280848152602001838152602001336001600160a01b03168152602001604051806020016040528060006001600160401b03811115610a8d57610a8d612649565b6040519080825280601f01601f191660200182016040528015610ab7576020820181803683370190505b509052815260006020918201819052838152808252604090819020835181559183015160018301558201516002820180546001600160a01b0319166001600160a01b039092169190911790556060820151805160038301908190610b1b9082612abe565b505050608091909101516004909101805460ff1916911515919091179055604080518481526020810184905282917fc94a0e99bf29151f3accc5676c55a5861bbd2af9c07eb0b105a28d725ab0afd1910161025d565b60008111610bd05760405162461bcd60e51b815260206004820152602660248201527f427579696e6720616d6f756e742073686f756c6420626520677265617465722060448201526507468616e20360d41b60648201526084016101e1565b6004805460009182610be183612aa5565b9190505590506040518060c0016040528085803603810190610c039190612b91565b815260208101849052604001610c1e36869003860186612be4565b8152602001336001600160a01b03168152602001604051806020016040528060006001600160401b03811115610c5657610c56612649565b6040519080825280601f01601f191660200182016040528015610c80576020820181803683370190505b5090528152600060209182018190528381526001808352604091829020845180518255840151918101805463ffffffff191663ffffffff938416179055848401516002820155848301518051600383015593840151600482018054959094015192166bffffffffffffffffffffffff19909416939093176401000000006001600160401b039092169190910217905560608201516005820180546001600160a01b0319166001600160a01b039092169190911790556080820151805160068301908190610d4d9082612abe565b50505060a091909101516007909101805460ff191691151591909117905560405181907f3d19f25a0f7e535ef5a30c2b9d2e66ac353dab2fe24f8df102de846e5c3e611d90610d9f9087908690612c54565b60405180910390a250505050565b6040516001600160a01b0380851660248301528316604482015260648101829052610e189085906323b872dd60e01b906084015b60408051601f198184030181529190526020810180516001600160e01b03166001600160e01b0319909316929092179091526112e9565b50505050565b6000610e2d83602001516113bb565b610e795760405162461bcd60e51b815260206004820152601d60248201527f496e76616c696420696e70757420766563746f722070726f766964656400000060448201526064016101e1565b610e86836040015161146a565b610ed25760405162461bcd60e51b815260206004820152601e60248201527f496e76616c6964206f757470757420766563746f722070726f7669646564000060448201526064016101e1565b610f108360000151846020015185604001518660600151604051602001610efc9493929190612c80565b60405160208183030381529060405261150c565b9050610f32610f228360400151611533565b8351602085015184929190611542565b610fa45760405162461bcd60e51b815260206004820152603c60248201527f5478206d65726b6c652070726f6f66206973206e6f742076616c696420666f7260448201527f2070726f76696465642068656164657220616e6420747820686173680000000060648201526084016101e1565b610fb2848360400151611580565b9392505050565b6000826000018054610fca9061265f565b604051610fdc92508590602001612cd3565b60405160208183030381529060405280519060200120905060006110448284806040019061100a9190612603565b8080601f01602080910402602001604051908101604052809392919081815260200183838082843760009201919091525061187e92505050565b6001600160401b03169050848110156110c55760405162461bcd60e51b815260206004820152603b60248201527f426974636f696e207472616e73616374696f6e20616d6f756e74206973206c6f60448201527f776572207468616e20696e206163636570746564206f726465722e000000000060648201526084016101e1565b5050505050565b6040516001600160a01b0383166024820152604481018290526110fc90849063a9059cbb60e01b90606401610de1565b505050565b60008061110d846118c9565b90925090506001820161116d5760405162461bcd60e51b815260206004820152602260248201527f52656164206f76657272756e20647572696e6720566172496e742070617273696044820152616e6760f01b60648201526084016101e1565b60008061117b846001612d5f565b9050600061118c86600001516118e0565b905060005b8481101561128b5760006111a58985611982565b905060006111dc6111b68b87611991565b60d881901c63ff00ff001662ff00ff60e89290921c9190911617601081811b91901c1790565b905081841480156111fc57508063ffffffff16896020015163ffffffff16145b1561120d5750505050505050505050565b6112178a866119a8565b9550600019860361126a5760405162461bcd60e51b815260206004820152601760248201527f42616420566172496e7420696e2073637269707453696700000000000000000060448201526064016101e1565b6112748686612d5f565b94505050808061128390612aa5565b915050611191565b5060405162461bcd60e51b815260206004820152602c60248201527f5472616e73616374696f6e20646f6573206e6f74207370656e6420746865207260448201526b65717569726564207574786f60a01b60648201526084016101e1565b600061133e826040518060400160405280602081526020017f5361666545524332303a206c6f772d6c6576656c2063616c6c206661696c6564815250856001600160a01b03166119fa9092919063ffffffff16565b8051909150156110fc578080602001905181019061135c9190612d72565b6110fc5760405162461bcd60e51b815260206004820152602a60248201527f5361666545524332303a204552433230206f7065726174696f6e20646964206e6044820152691bdd081cdd58d8d9595960b21b60648201526084016101e1565b60008060006113c9846118c9565b90925090508015806113dc575060001982145b156113eb575060009392505050565b60006113f8836001612d5f565b905060005b8281101561145d57855182106114195750600095945050505050565b600061142587846119a8565b9050600019810361143d575060009695505050505050565b6114478184612d5f565b925050808061145590612aa5565b9150506113fd565b5093519093149392505050565b6000806000611478846118c9565b909250905080158061148b575060001982145b1561149a575060009392505050565b60006114a7836001612d5f565b905060005b8281101561145d57855182106114c85750600095945050505050565b60006114d48784611a09565b905060001981036114ec575060009695505050505050565b6114f68184612d5f565b925050808061150490612aa5565b9150506114ac565b60006020600083516020850160025afa50602060006020600060025afa5050600051919050565b60448101516000905b92915050565b60008385148015611551575081155b801561155c57508251155b1561156957506001611578565b61157585848685611a6d565b90505b949350505050565b81546040805163089bb25f60e11b815290516001600160a01b0390921691600091839163113764be916004808201926020929091908290030181865afa1580156115ce573d6000803e3d6000fd5b505050506040513d601f19601f820116820180604052508101906115f29190612d94565b90506000826001600160a01b0316632b97be246040518163ffffffff1660e01b8152600401602060405180830381865afa158015611634573d6000803e3d6000fd5b505050506040513d601f19601f820116820180604052508101906116589190612d94565b905060008061166e61166987611b17565b611b24565b905083810361167f578391506116e4565b82810361168e578291506116e4565b60405162461bcd60e51b815260206004820152602560248201527f4e6f742061742063757272656e74206f722070726576696f757320646966666960448201526463756c747960d81b60648201526084016101e1565b60006116ef87611b35565b9050600019810361174e5760405162461bcd60e51b815260206004820152602360248201527f496e76616c6964206c656e677468206f6620746865206865616465727320636860448201526230b4b760e91b60648201526084016101e1565b60011981036117975760405162461bcd60e51b815260206004820152601560248201527424b73b30b634b2103432b0b232b9399031b430b4b760591b60448201526064016101e1565b60021981036117e85760405162461bcd60e51b815260206004820152601d60248201527f496e73756666696369656e7420776f726b20696e20612068656164657200000060448201526064016101e1565b875461180990600160a01b90046bffffffffffffffffffffffff1684612dad565b8110156118745760405162461bcd60e51b815260206004820152603360248201527f496e73756666696369656e7420616363756d756c617465642064696666696375604482015272363a3c9034b7103432b0b232b91031b430b4b760691b60648201526084016101e1565b5050505050505050565b600080600061188c846118c9565b9092509050600061189e836001612d5f565b90506118bf8686604051806040016040528085815260200186815250611d22565b9695505050505050565b6000806118d7836000611e11565b91509150915091565b60408051602080825281830190925260009182919060208201818036833701905050905060005b60208110156119775783816020811061192257611922612dc4565b1a60f81b826001611934846020612dda565b61193e9190612dda565b8151811061194e5761194e612dc4565b60200101906001600160f81b031916908160001a9053508061196f81612aa5565b915050611907565b506020015192915050565b6000610fb28383016020015190565b6000610fb26119a1836020612d5f565b8490611982565b60008060006119b78585611f33565b9092509050600182016119d0576000199250505061153c565b806119dc836025612d5f565b6119e69190612d5f565b6119f1906004612d5f565b95945050505050565b60606115788484600085611f75565b6000611a16826009612d5f565b83511015611a27575060001961153c565b600080611a3e85611a39866008612d5f565b611e11565b909250905060018201611a57576000199250505061153c565b80611a63836009612d5f565b6119f19190612d5f565b600060208451611a7d9190612e03565b15611a8a57506000611578565b8351600003611a9b57506000611578565b818560005b8651811015611b0a57611ab4600284612e03565b600103611ad857611ad1611acb8883016020015190565b836120a6565b9150611af1565b611aee82611ae98984016020015190565b6120a6565b91505b60019290921c91611b03602082612d5f565b9050611aa0565b5090931495945050505050565b600061153c8260006120b2565b600061153c61ffff60d01b83612150565b600060508251611b459190612e03565b15611b535750600019919050565b50600080805b8351811015611d1b578015611b8257611b7384828461215c565b611b8257506001199392505050565b6000611b8e85836120b2565b9050611b9c85836050612187565b925080611ce08460008190506008817eff00ff00ff00ff00ff00ff00ff00ff00ff00ff00ff00ff00ff00ff00ff00ff16901b600882901c7eff00ff00ff00ff00ff00ff00ff00ff00ff00ff00ff00ff00ff00ff00ff00ff161790506010817dffff0000ffff0000ffff0000ffff0000ffff0000ffff0000ffff0000ffff16901b601082901c7dffff0000ffff0000ffff0000ffff0000ffff0000ffff0000ffff0000ffff161790506020817bffffffff00000000ffffffff00000000ffffffff00000000ffffffff16901b602082901c7bffffffff00000000ffffffff00000000ffffffff00000000ffffffff1617905060408177ffffffffffffffff0000000000000000ffffffffffffffff16901b604082901c77ffffffffffffffff0000000000000000ffffffffffffffff16179050608081901b608082901c179050919050565b1115611cf25750600219949350505050565b611cfb81611b24565b611d059085612d5f565b9350611d149050605082612d5f565b9050611b59565b5050919050565b6000805b8260200151811015611dc8578251600090611d42908690611a09565b8451909150600090611d559087906121b1565b90506000611d64600884612dda565b8651909150600090611d77906008612d5f565b888101602001839020909150808a03611d9857839650505050505050610fb2565b8488600001818151611daa9190612d5f565b905250859450611dc09350849250612aa5915050565b915050611d26565b5060405162461bcd60e51b815260206004820181905260248201527f4e6f206f757470757420666f756e6420666f72207363726970745075624b657960448201526064016101e1565b6000806000611e2085856121ce565b90508060ff16600003611e55576000858581518110611e4157611e41612dc4565b016020015190935060f81c9150611f2c9050565b83611e61826001612e17565b60ff16611e6e9190612d5f565b85511015611e855760001960009250925050611f2c565b60008160ff16600203611ec957611ebe611eaa611ea3876001612d5f565b8890611982565b62ffff0060e882901c1660f89190911c1790565b61ffff169050611f22565b8160ff16600403611ef257611ee56111b6611ea3876001612d5f565b63ffffffff169050611f22565b8160ff16600803611f2257611f16611f0e611ea3876001612d5f565b60c01c612254565b6001600160401b031690505b60ff909116925090505b9250929050565b600080611f41836025612d5f565b84511015611f56575060001990506000611f2c565b600080611f6886611a39876024612d5f565b9097909650945050505050565b606082471015611fd65760405162461bcd60e51b815260206004820152602660248201527f416464726573733a20696e73756666696369656e742062616c616e636520666f6044820152651c8818d85b1b60d21b60648201526084016101e1565b6001600160a01b0385163b61202d5760405162461bcd60e51b815260206004820152601d60248201527f416464726573733a2063616c6c20746f206e6f6e2d636f6e747261637400000060448201526064016101e1565b600080866001600160a01b031685876040516120499190612e30565b60006040518083038185875af1925050503d8060008114612086576040519150601f19603f3d011682016040523d82523d6000602084013e61208b565b606091505b509150915061209b8282866122b3565b979650505050505050565b6000610fb283836122ec565b6000806120ca6120c3846048612d5f565b8590611982565b60e81c90506000846120dd85604b612d5f565b815181106120ed576120ed612dc4565b016020015160f81c9050600061212183600060108262ffffff16901c8261ff001660108462ffffff16901b17179050919050565b62ffffff1690506000612135600384612e4c565b60ff16905061214681610100612f49565b61209b9083612dad565b6000610fb28284612f55565b600080612169858561231a565b905082811461217c576000915050610fb2565b506001949350505050565b6000602060008385602001870160025afa50602060006020600060025afa50506000519392505050565b6000806121be8484611982565b60c01c905060006119f182612254565b60008282815181106121e2576121e2612dc4565b016020015160f81c60ff036121f95750600861153c565b82828151811061220b5761220b612dc4565b016020015160f81c60fe036122225750600461153c565b82828151811061223457612234612dc4565b016020015160f81c60fd0361224b5750600261153c565b50600092915050565b64ff000000ff600882811c91821665ff000000ff009390911b92831617601090811b6001600160401b031666ff00ff00ff00ff9290921667ff00ff00ff00ff009093169290921790911c65ffff0000ffff1617602081811c91901b1790565b606083156122c2575081610fb2565b8251156122d25782518084602001fd5b8160405162461bcd60e51b81526004016101e19190612f69565b60008260005281602052602060006040600060025afa50602060006020600060025afa505060005192915050565b6000610fb261232a836004612d5f565b84016020015190565b50805461233f9061265f565b6000825580601f1061234f575050565b601f01602090049060005260206000209081019061236d9190612370565b50565b5b808211156123855760008155600101612371565b5090565b6000806040838503121561239c57600080fd5b8235915060208301356001600160401b038111156123b957600080fd5b8301602081860312156123cb57600080fd5b809150509250929050565b6000602082840312156123e857600080fd5b5035919050565b60005b8381101561240a5781810151838201526020016123f2565b50506000910152565b6000815180845261242b8160208601602086016123ef565b601f01601f19169290920160200192915050565b600061012088518352602089015163ffffffff8082166020860152896040860152885160608601528060208a015116608086015250506001600160401b0360408801511660a084015260018060a01b03861660c08401528060e084015284516020828501526124b2610140850182612413565b9250505061209b61010083018415159052565b6000606082840312156124d757600080fd5b50919050565b6000806000606084860312156124f257600080fd5b8335925060208401356001600160401b038082111561251057600080fd5b908501906080828803121561252457600080fd5b9092506040850135908082111561253a57600080fd5b50612547868287016124c5565b9150509250925092565b85815284602082015260018060a01b038416604082015260a0606082015260008351602060a084015261258760c0840182612413565b91505082151560808301529695505050505050565b600080604083850312156125af57600080fd5b50508035926020909101359150565b600080600083850360c08112156125d457600080fd5b60408112156125e257600080fd5b508392506125f385604086016124c5565b915060a084013590509250925092565b6000808335601e1984360301811261261a57600080fd5b8301803591506001600160401b0382111561263457600080fd5b602001915036819003821315611f2c57600080fd5b634e487b7160e01b600052604160045260246000fd5b600181811c9082168061267357607f821691505b6020821081036124d757634e487b7160e01b600052602260045260246000fd5b601f8211156110fc57600081815260208120601f850160051c810160208610156126ba5750805b601f850160051c820191505b818110156126d9578281556001016126c6565b505050505050565b8135601e198336030181126126f557600080fd5b820180356001600160401b0381111561270d57600080fd5b6020813603818401131561272057600080fd5b6127348261272e865461265f565b86612693565b6000601f83116001811461276a576000841561275257508482018301355b600019600386901b1c1916600185901b1786556127c7565b600086815260209020601f19851690835b8281101561279c57878501860135825593850193600190910190850161277b565b50858210156127bb5760001960f88760031b161c198585890101351681555b505060018460011b0186555b50505050505050565b81835281816020850137506000828201602090810191909152601f909101601f19169091010190565b6020815260008235601e1984360301811261281357600080fd5b83016020810190356001600160401b0381111561282f57600080fd5b80360382131561283e57600080fd5b6020808501526119f16040850182846127d0565b6020808252602a908201527f4f6e6c7920746865206f726967696e616c2073656c6c65722063616e2070726f6040820152693b34b23290383937b7b360b11b606082015260800190565b6020815260006115786020830184866127d0565b80356001600160e01b0319811681146128c857600080fd5b919050565b600082601f8301126128de57600080fd5b81356001600160401b03808211156128f8576128f8612649565b604051601f8301601f19908116603f0116810190828211818310171561292057612920612649565b8160405283815286602085880101111561293957600080fd5b836020870160208301376000602085830101528094505050505092915050565b60006080823603121561296b57600080fd5b604051608081016001600160401b03828210818311171561298e5761298e612649565b8160405261299b856128b0565b835260208501359150808211156129b157600080fd5b6129bd368387016128cd565b602084015260408501359150808211156129d657600080fd5b506129e3368286016128cd565b6040830152506129f5606084016128b0565b606082015292915050565b600060608236031215612a1257600080fd5b604051606081016001600160401b038282108183111715612a3557612a35612649565b816040528435915080821115612a4a57600080fd5b612a56368387016128cd565b8352602085013560208401526040850135915080821115612a7657600080fd5b50612a83368286016128cd565b60408301525092915050565b634e487b7160e01b600052601160045260246000fd5b600060018201612ab757612ab7612a8f565b5060010190565b81516001600160401b03811115612ad757612ad7612649565b612aeb81612ae5845461265f565b84612693565b602080601f831160018114612b205760008415612b085750858301515b600019600386901b1c1916600185901b1785556126d9565b600085815260208120601f198616915b82811015612b4f57888601518255948401946001909101908401612b30565b5085821015612b6d5787850151600019600388901b60f8161c191681555b5050505050600190811b01905550565b803563ffffffff811681146128c857600080fd5b600060408284031215612ba357600080fd5b604051604081018181106001600160401b0382111715612bc557612bc5612649565b60405282358152612bd860208401612b7d565b60208201529392505050565b600060608284031215612bf657600080fd5b604051606081016001600160401b038282108183111715612c1957612c19612649565b8160405284358352612c2d60208601612b7d565b6020840152604085013591508082168214612c4757600080fd5b5060408201529392505050565b823581526060810163ffffffff612c6d60208601612b7d565b1660208301528260408301529392505050565b600063ffffffff60e01b80871683528551612ca2816004860160208a016123ef565b855190840190612cb9816004840160208a016123ef565b919094169301600481019390935250506008019392505050565b60ff60f81b8360f81b1681526000600160008454612cf08161265f565b8184168015612d065760018114612d1f57612d52565b60ff198316878601528115158202870185019350612d52565b8760005260208060002060005b84811015612d475781548a8201890152908701908201612d2c565b505050848288010193505b5091979650505050505050565b8082018082111561153c5761153c612a8f565b600060208284031215612d8457600080fd5b81518015158114610fb257600080fd5b600060208284031215612da657600080fd5b5051919050565b808202811582820484141761153c5761153c612a8f565b634e487b7160e01b600052603260045260246000fd5b8181038181111561153c5761153c612a8f565b634e487b7160e01b600052601260045260246000fd5b600082612e1257612e12612ded565b500690565b60ff818116838216019081111561153c5761153c612a8f565b60008251612e428184602087016123ef565b9190910192915050565b60ff828116828216039081111561153c5761153c612a8f565b600181815b80851115612ea0578160001904821115612e8657612e86612a8f565b80851615612e9357918102915b93841c9390800290612e6a565b509250929050565b600082612eb75750600161153c565b81612ec45750600061153c565b8160018114612eda5760028114612ee457612f00565b600191505061153c565b60ff841115612ef557612ef5612a8f565b50506001821b61153c565b5060208310610133831016604e8410600b8410161715612f23575081810a61153c565b612f2d8383612e65565b8060001904821115612f4157612f41612a8f565b029392505050565b6000610fb28383612ea8565b600082612f6457612f64612ded565b500490565b602081526000610fb2602083018461241356fea2646970667358221220841039908e58126118093dc06c2a290c4554a5d1fc72aeaf03d74c6509d159f064736f6c63430008110033","linkReferences":{}},"methodIdentifiers":{"acceptBtcSellOrder(uint256,(bytes))":"87f99430","acceptOrdinalSellOrder(uint256,(bytes))":"2814a1cd","btcSellOrders(uint256)":"ecca2c36","completeBtcSellOrder(uint256,(bytes4,bytes,bytes,bytes4),(bytes,uint256,bytes))":"7c420eef","completeOrdinalSellOrder(uint256,(bytes4,bytes,bytes,bytes4),(bytes,uint256,bytes))":"8cffc596","ordinalSellOrders(uint256)":"2b260fa0","placeBtcSellOrder(uint256,uint256)":"fe5e30b4","placeOrdinalSellOrder((bytes32,uint32),(bytes32,uint32,uint64),uint256)":"febf1722","usdtContractAddress()":"388c54de"},"id":38}