{"abi":[{"type":"function","name":"authorizationRequired","inputs":[],"outputs":[{"name":"","type":"bool","internalType":"bool"}],"stateMutability":"view"},{"type":"function","name":"authorize","inputs":[{"name":"submitter","type":"address","internalType":"address"}],"outputs":[],"stateMutability":"nonpayable"},{"type":"function","name":"currentEpoch","inputs":[],"outputs":[{"name":"","type":"uint64","internalType":"uint64"}],"stateMutability":"view"},{"type":"function","name":"deauthorize","inputs":[{"name":"submitter","type":"address","internalType":"address"}],"outputs":[],"stateMutability":"nonpayable"},{"type":"function","name":"genesis","inputs":[{"name":"genesisHeader","type":"bytes","internalType":"bytes"},{"name":"genesisHeight","type":"uint256","internalType":"uint256"},{"name":"genesisProofLength","type":"uint64","internalType":"uint64"}],"outputs":[],"stateMutability":"nonpayable"},{"type":"function","name":"genesisEpoch","inputs":[],"outputs":[{"name":"","type":"uint64","internalType":"uint64"}],"stateMutability":"view"},{"type":"function","name":"getBlockDifficulty","inputs":[{"name":"blockNumber","type":"uint256","internalType":"uint256"}],"outputs":[{"name":"","type":"uint256","internalType":"uint256"}],"stateMutability":"view"},{"type":"function","name":"getCurrentAndPrevEpochDifficulty","inputs":[],"outputs":[{"name":"current","type":"uint256","internalType":"uint256"},{"name":"previous","type":"uint256","internalType":"uint256"}],"stateMutability":"view"},{"type":"function","name":"getCurrentEpochDifficulty","inputs":[],"outputs":[{"name":"","type":"uint256","internalType":"uint256"}],"stateMutability":"view"},{"type":"function","name":"getEpochDifficulty","inputs":[{"name":"epochNumber","type":"uint256","internalType":"uint256"}],"outputs":[{"name":"","type":"uint256","internalType":"uint256"}],"stateMutability":"view"},{"type":"function","name":"getPrevEpochDifficulty","inputs":[],"outputs":[{"name":"","type":"uint256","internalType":"uint256"}],"stateMutability":"view"},{"type":"function","name":"getRelayRange","inputs":[],"outputs":[{"name":"relayGenesis","type":"uint256","internalType":"uint256"},{"name":"currentEpochEnd","type":"uint256","internalType":"uint256"}],"stateMutability":"view"},{"type":"function","name":"isAuthorized","inputs":[{"name":"","type":"address","internalType":"address"}],"outputs":[{"name":"","type":"bool","internalType":"bool"}],"stateMutability":"view"},{"type":"function","name":"owner","inputs":[],"outputs":[{"name":"","type":"address","internalType":"address"}],"stateMutability":"view"},{"type":"function","name":"proofLength","inputs":[],"outputs":[{"name":"","type":"uint64","internalType":"uint64"}],"stateMutability":"view"},{"type":"function","name":"ready","inputs":[],"outputs":[{"name":"","type":"bool","internalType":"bool"}],"stateMutability":"view"},{"type":"function","name":"renounceOwnership","inputs":[],"outputs":[],"stateMutability":"nonpayable"},{"type":"function","name":"retarget","inputs":[{"name":"headers","type":"bytes","internalType":"bytes"}],"outputs":[],"stateMutability":"nonpayable"},{"type":"function","name":"setAuthorizationStatus","inputs":[{"name":"status","type":"bool","internalType":"bool"}],"outputs":[],"stateMutability":"nonpayable"},{"type":"function","name":"setDifficultyFromHeaders","inputs":[{"name":"bitcoinHeaders","type":"bytes","internalType":"bytes"}],"outputs":[],"stateMutability":"nonpayable"},{"type":"function","name":"setProofLength","inputs":[{"name":"newLength","type":"uint64","internalType":"uint64"}],"outputs":[],"stateMutability":"nonpayable"},{"type":"function","name":"transferOwnership","inputs":[{"name":"newOwner","type":"address","internalType":"address"}],"outputs":[],"stateMutability":"nonpayable"},{"type":"function","name":"validateChain","inputs":[{"name":"headers","type":"bytes","internalType":"bytes"}],"outputs":[{"name":"startingHeaderTimestamp","type":"uint256","internalType":"uint256"},{"name":"headerCount","type":"uint256","internalType":"uint256"}],"stateMutability":"view"},{"type":"event","name":"AuthorizationRequirementChanged","inputs":[{"name":"newStatus","type":"bool","indexed":false,"internalType":"bool"}],"anonymous":false},{"type":"event","name":"Genesis","inputs":[{"name":"blockHeight","type":"uint256","indexed":false,"internalType":"uint256"}],"anonymous":false},{"type":"event","name":"OwnershipTransferred","inputs":[{"name":"previousOwner","type":"address","indexed":true,"internalType":"address"},{"name":"newOwner","type":"address","indexed":true,"internalType":"address"}],"anonymous":false},{"type":"event","name":"ProofLengthChanged","inputs":[{"name":"newLength","type":"uint256","indexed":false,"internalType":"uint256"}],"anonymous":false},{"type":"event","name":"Retarget","inputs":[{"name":"oldDifficulty","type":"uint256","indexed":false,"internalType":"uint256"},{"name":"newDifficulty","type":"uint256","indexed":false,"internalType":"uint256"}],"anonymous":false},{"type":"event","name":"SubmitterAuthorized","inputs":[{"name":"submitter","type":"address","indexed":false,"internalType":"address"}],"anonymous":false},{"type":"event","name":"SubmitterDeauthorized","inputs":[{"name":"submitter","type":"address","indexed":false,"internalType":"address"}],"anonymous":false}],"bytecode":{"object":"0x608060405234801561001057600080fd5b5061001a3361001f565b61006f565b600080546001600160a01b038381166001600160a01b0319831681178455604051919092169283917f8be0079c531659141344cd1fd0a4f28419497f9722a3daafe3b4186f6b6457e09190a35050565b611fd58061007e6000396000f3fe608060405234801561001057600080fd5b506004361061014d5760003560e01c8063715018a6116100c3578063b70e6be61161007c578063b70e6be6146102c4578063d38c29a1146102d7578063eb8695ef146102ea578063f2fde38b146102fd578063f5619fda14610310578063fe9fbb801461032a57600080fd5b8063715018a614610235578063766718081461023d5780637ca5b1dd1461026f5780638da5cb5b1461028257806395410d2b1461029d578063b6a5d7de146102b157600080fd5b806327c97fa51161011557806327c97fa5146101c55780632b97be24146101d85780633a1b77b0146101e05780634ca49f51146101eb578063620414e6146101fe5780636defbf801461021157600080fd5b806306a274221461015257806310b76ed814610178578063113764be14610195578063189179a31461019d57806319c9aa32146101b0575b600080fd5b610165610160366004611b46565b61034d565b6040519081526020015b60405180910390f35b610180610364565b6040805192835260208301919091520161016f565b600254610165565b6101806101ab366004611b75565b6103c1565b6101c36101be366004611c41565b61079b565b005b6101c36101d3366004611c5c565b61098a565b600354610165565b600254600354610180565b6101c36101f9366004611c85565b610a05565b61016561020c366004611b46565b610d8e565b60005461022590600160a01b900460ff1681565b604051901515815260200161016f565b6101c3610e82565b60015461025790600160401b90046001600160401b031681565b6040516001600160401b03909116815260200161016f565b6101c361027d366004611b75565b610eb8565b6000546040516001600160a01b03909116815260200161016f565b60005461022590600160a81b900460ff1681565b6101c36102bf366004611c5c565b6113fc565b600154610257906001600160401b031681565b6101c36102e5366004611b75565b61147a565b6101c36102f8366004611d0d565b6114c3565b6101c361030b366004611c5c565b61153a565b60005461025790600160b01b90046001600160401b031681565b610225610338366004611c5c565b60056020526000908152604090205460ff1681565b600061035e61020c6107e084611d5b565b92915050565b6001546000908190610381906001600160401b03166107e0611d6f565b6001546001600160401b0391821693506103a691600160401b909104166107e0611d6f565b6103b2906107df611d9a565b6001600160401b031690509091565b600080605083516103d29190611dc1565b1561041c5760405162461bcd60e51b8152602060048201526015602482015274092dcecc2d8d2c840d0cac2c8cae440d8cadccee8d605b1b60448201526064015b60405180910390fd5b6050835161042a9190611d5b565b905060018111801561043d57506107e081105b6104895760405162461bcd60e51b815260206004820152601960248201527f496e76616c6964206e756d626572206f662068656164657273000000000000006044820152606401610413565b610492836115d5565b63ffffffff1691506000806104a8858280611609565b604080518082018252600080825260208083018290526001546001600160401b03600160401b90910416808352600482529184902084518086019095525463ffffffff81168552600160201b90046001600160e01b031690840152939550919350909190825b815163ffffffff1688101561056b57610528600184611dd5565b60008181526004602090815260409182902082518084019093525463ffffffff81168352600160201b90046001600160e01b03169082015290935091905061050e565b815163ffffffff166105d35760405162461bcd60e51b815260206004820152602b60248201527f43616e6e6f742076616c696461746520636861696e73206265666f726520726560448201526a6c61792067656e6573697360a81b6064820152608401610413565b81602001516001600160e01b0316851461069c5780602001516001600160e01b031685036106035790508261069c565b61060e600184611dd5565b60008181526004602090815260409182902082518084019093525463ffffffff81168352600160201b90046001600160e01b0316908201819052919450929150851461069c5760405162461bcd60e51b815260206004820152601e60248201527f496e76616c69642074617267657420696e2068656164657220636861696e00006044820152606401610413565b60015b8781101561078f5760006106be8b6106b8846050611de8565b8a611609565b60208601519098509091506001600160e01b0316871461077b5760006106ef6106e8846050611de8565b8d906116c0565b845163ffffffff91821692501615801590610716575083602001516001600160e01b031688145b80156107285750835163ffffffff1681145b6107745760405162461bcd60e51b815260206004820152601e60248201527f496e76616c69642074617267657420696e2068656164657220636861696e00006044820152606401610413565b5091925084915b96508061078781611dff565b91505061069f565b50505050505050915091565b600054600160a01b900460ff166107f45760405162461bcd60e51b815260206004820152601a60248201527f52656c6179206973206e6f7420726561647920666f72207573650000000000006044820152606401610413565b6000546001600160a01b0316331461081e5760405162461bcd60e51b815260040161041390611e18565b6107e0816001600160401b0316106108715760405162461bcd60e51b815260206004820152601660248201527550726f6f66206c656e6774682065786365737369766560501b6044820152606401610413565b6000816001600160401b0316116108ca5760405162461bcd60e51b815260206004820152601c60248201527f50726f6f66206c656e677468206d6179206e6f74206265207a65726f000000006044820152606401610413565b6000546001600160401b03600160b01b9091048116908216036109285760405162461bcd60e51b8152602060048201526016602482015275141c9bdbd9881b195b99dd1a081d5b98da185b99d95960521b6044820152606401610413565b6000805467ffffffffffffffff60b01b1916600160b01b6001600160401b038416908102919091179091556040519081527f3e9f904d8cf11753c79b67c8259c582056d4a7d8af120f81257a59eeb8824b96906020015b60405180910390a150565b6000546001600160a01b031633146109b45760405162461bcd60e51b815260040161041390611e18565b6001600160a01b038116600081815260056020908152604091829020805460ff1916905590519182527f7498b96beeabea5ad3139f1a2861a03e480034254e36b10aae2e6e42ad7b4b68910161097f565b6000546001600160a01b03163314610a2f5760405162461bcd60e51b815260040161041390611e18565b600054600160a01b900460ff1615610a895760405162461bcd60e51b815260206004820152601960248201527f47656e6573697320616c726561647920706572666f726d6564000000000000006044820152606401610413565b60508314610ad95760405162461bcd60e51b815260206004820152601d60248201527f496e76616c69642067656e6573697320686561646572206c656e6774680000006044820152606401610413565b610ae56107e083611dc1565b15610b405760405162461bcd60e51b815260206004820152602560248201527f496e76616c696420686569676874206f662072656c61792067656e6573697320604482015264626c6f636b60d81b6064820152608401610413565b6107e0816001600160401b031610610b935760405162461bcd60e51b815260206004820152601660248201527550726f6f66206c656e6774682065786365737369766560501b6044820152606401610413565b6000816001600160401b031611610bec5760405162461bcd60e51b815260206004820152601c60248201527f50726f6f66206c656e677468206d6179206e6f74206265207a65726f000000006044820152606401610413565b610bf86107e083611d5b565b600180546fffffffffffffffffffffffffffffffff19166001600160401b0392909216918217600160401b92909202919091179055604080516020601f8601819004810282018101909252848152600091610c6e919087908790819084018382808284376000920191909152506116e192505050565b90506000610cb186868080601f0160208091040260200160405190810160405280939291908181526020018383808284376000920191909152506115d592505050565b60408051808201825263ffffffff9283168082526001600160e01b0380871660208085019182526001546001600160401b039081166000908152600490925295812094519151909216600160201b029516949094179091558254918616600160b01b0267ffffffffffffffff60b01b19909216919091179091559050610d36826116ee565b6002556000805460ff60a01b1916600160a01b1790556040517f2381d16925551c2fb1a5edfcf4fce2f6d085e1f85f4b88340c09c9d191f9d4e990610d7e9086815260200190565b60405180910390a1505050505050565b6001546000906001600160401b0316821015610dec5760405162461bcd60e51b815260206004820152601d60248201527f45706f6368206973206265666f72652072656c61792067656e657369730000006044820152606401610413565b600154600160401b90046001600160401b0316821115610e5a5760405162461bcd60e51b8152602060048201526024808201527f45706f6368206973206e6f742070726f76656e20746f207468652072656c6179604482015263081e595d60e21b6064820152608401610413565b60008281526004602052604090205461035e90600160201b90046001600160e01b03166116ee565b6000546001600160a01b03163314610eac5760405162461bcd60e51b815260040161041390611e18565b610eb660006116ff565b565b600054600160a01b900460ff16610f115760405162461bcd60e51b815260206004820152601a60248201527f52656c6179206973206e6f7420726561647920666f72207573650000000000006044820152606401610413565b600054600160a81b900460ff1615610f7b573360009081526005602052604090205460ff16610f7b5760405162461bcd60e51b815260206004820152601660248201527514dd589b5a5d1d195c881d5b985d5d1a1bdc9a5e995960521b6044820152606401610413565b600054610f9990600160b01b90046001600160401b03166002611d6f565b610fa4906050611d6f565b6001600160401b0316815114610ff45760405162461bcd60e51b8152602060048201526015602482015274092dcecc2d8d2c840d0cac2c8cae440d8cadccee8d605b1b6044820152606401610413565b600154600160401b90046001600160401b0316600090815260046020526040812080549091600160201b9091046001600160e01b031690805b600054600160b01b90046001600160401b03168110156110d65760008061105f87611059856050611de8565b86611609565b915091508481146110c15760405162461bcd60e51b815260206004820152602660248201527f496e76616c69642074617267657420696e207072652d7265746172676574206860448201526565616465727360d01b6064820152608401610413565b509150806110ce81611dff565b91505061102d565b5060008054611116906110fb90600190600160b01b90046001600160401b0316611e4d565b611106906050611d6f565b86906001600160401b03166116c0565b63ffffffff16905042811061116d5760405162461bcd60e51b815260206004820152601e60248201527f45706f63682063616e6e6f7420656e6420696e207468652066757475726500006044820152606401610413565b835460009061118490859063ffffffff168461174f565b90506000806111be600060169054906101000a90046001600160401b031660506111ae9190611d6f565b89906001600160401b03166116c0565b60005463ffffffff919091169150600160b01b90046001600160401b03165b6000546111fb90600160b01b90046001600160401b03166002611d6f565b6001600160401b03168110156112f65760008061121d8b6106b8856050611de8565b915091508460000361128257809450808616811461127d5760405162461bcd60e51b815260206004820152601b60248201527f496e76616c69642074617267657420696e206e65772065706f636800000000006044820152606401610413565b6112e1565b8481146112e15760405162461bcd60e51b815260206004820152602760248201527f556e657870656374656420746172676574206368616e67652061667465722072604482015266195d185c99d95d60ca1b6064820152608401610413565b509550806112ee81611dff565b9150506111dd565b50600160089054906101000a90046001600160401b031660016113199190611d9a565b600180546001600160401b03928316600160401b9081026fffffffffffffffff000000000000000019909216919091179182905560408051808201825263ffffffff80871682526001600160e01b038089166020808501918252959096049096166000908152600490945291832090519351909416600160201b02921691909117909155600254906113aa846116ee565b6003839055600281905560408051848152602081018390529192507fa282ee798b132f9dc11e06cd4d8e767e562be8709602ca14fea7ab3392acbdab910160405180910390a150505050505050505050565b6000546001600160a01b031633146114265760405162461bcd60e51b815260040161041390611e18565b6001600160a01b038116600081815260056020908152604091829020805460ff1916600117905590519182527fd53649b492f738bb59d6825099b5955073efda0bf9e3a7ad20da22e110122e29910161097f565b6000546001600160a01b031633146114a45760405162461bcd60e51b815260040161041390611e18565b60006114b76114b2836116e1565b6116ee565b60028190556003555050565b6000546001600160a01b031633146114ed5760405162461bcd60e51b815260040161041390611e18565b60008054821515600160a81b0260ff60a81b199091161790556040517fd813b248d49c8bf08be2b6947126da6763df310beed7bea97756456c5727419a9061097f90831515815260200190565b6000546001600160a01b031633146115645760405162461bcd60e51b815260040161041390611e18565b6001600160a01b0381166115c95760405162461bcd60e51b815260206004820152602660248201527f4f776e61626c653a206e6577206f776e657220697320746865207a65726f206160448201526564647265737360d01b6064820152608401610413565b6115d2816116ff565b50565b600061035e6115e3836117e3565b60d881901c63ff00ff001662ff00ff60e89290921c9190911617601081811b91901c1790565b60008082156116595761161d8585856117f0565b6116595760405162461bcd60e51b815260206004820152600d60248201526c24b73b30b634b21031b430b4b760991b6044820152606401610413565b611663858561181b565b9050611671858560506118bd565b915061167d82826118e7565b6116b85760405162461bcd60e51b815260206004820152600c60248201526b496e76616c696420776f726b60a01b6044820152606401610413565b935093915050565b60006116da6115e36116d3846044611e6d565b8590611a40565b9392505050565b600061035e82600061181b565b600061035e61ffff60d01b83611a4f565b600080546001600160a01b038381166001600160a01b0319831681178455604051919092169283917f8be0079c531659141344cd1fd0a4f28419497f9722a3daafe3b4186f6b6457e09190a35050565b60008061175c8385611a5b565b905061176c621275006004611a4f565b81101561178457611781621275006004611a4f565b90505b611792621275006004611ab7565b8111156117aa576117a7621275006004611ab7565b90505b60006117c3826117bd8862010000611a4f565b90611ab7565b90506117d9620100006117bd8362127500611a4f565b9695505050505050565b600061035e826044611a40565b6000806117fd8585611b2d565b90508281146118105760009150506116da565b506001949350505050565b60008061182c6116d3846048611e6d565b60e81c905060008461183f85604b611e6d565b8151811061184f5761184f611e80565b016020015160f81c9050600061188383600060108262ffffff16901c8261ff001660108462ffffff16901b17179050919050565b62ffffff1690506000611897600384611e96565b60ff1690506118a881610100611f93565b6118b29083611de8565b979650505050505050565b6000602060008385602001870160025afa50602060006020600060025afa50506000519392505050565b6000826118f65750600061035e565b81611a388460008190506008817eff00ff00ff00ff00ff00ff00ff00ff00ff00ff00ff00ff00ff00ff00ff00ff16901b600882901c7eff00ff00ff00ff00ff00ff00ff00ff00ff00ff00ff00ff00ff00ff00ff00ff161790506010817dffff0000ffff0000ffff0000ffff0000ffff0000ffff0000ffff0000ffff16901b601082901c7dffff0000ffff0000ffff0000ffff0000ffff0000ffff0000ffff0000ffff161790506020817bffffffff00000000ffffffff00000000ffffffff00000000ffffffff16901b602082901c7bffffffff00000000ffffffff00000000ffffffff00000000ffffffff1617905060408177ffffffffffffffff0000000000000000ffffffffffffffff16901b604082901c77ffffffffffffffff0000000000000000ffffffffffffffff16179050608081901b608082901c179050919050565b109392505050565b60006116da8383016020015190565b60006116da8284611d5b565b600082821115611aad5760405162461bcd60e51b815260206004820152601d60248201527f556e646572666c6f7720647572696e67207375627472616374696f6e2e0000006044820152606401610413565b6116da8284611dd5565b600082600003611ac95750600061035e565b611ad38284611de8565b905081611ae08483611d5b565b1461035e5760405162461bcd60e51b815260206004820152601f60248201527f4f766572666c6f7720647572696e67206d756c7469706c69636174696f6e2e006044820152606401610413565b60006116da611b3d836004611e6d565b84016020015190565b600060208284031215611b5857600080fd5b5035919050565b634e487b7160e01b600052604160045260246000fd5b600060208284031215611b8757600080fd5b81356001600160401b0380821115611b9e57600080fd5b818401915084601f830112611bb257600080fd5b813581811115611bc457611bc4611b5f565b604051601f8201601f19908116603f01168101908382118183101715611bec57611bec611b5f565b81604052828152876020848701011115611c0557600080fd5b826020860160208301376000928101602001929092525095945050505050565b80356001600160401b0381168114611c3c57600080fd5b919050565b600060208284031215611c5357600080fd5b6116da82611c25565b600060208284031215611c6e57600080fd5b81356001600160a01b03811681146116da57600080fd5b60008060008060608587031215611c9b57600080fd5b84356001600160401b0380821115611cb257600080fd5b818701915087601f830112611cc657600080fd5b813581811115611cd557600080fd5b886020828501011115611ce757600080fd5b602092830196509450508501359150611d0260408601611c25565b905092959194509250565b600060208284031215611d1f57600080fd5b813580151581146116da57600080fd5b634e487b7160e01b600052601260045260246000fd5b634e487b7160e01b600052601160045260246000fd5b600082611d6a57611d6a611d2f565b500490565b6001600160401b03818116838216028082169190828114611d9257611d92611d45565b505092915050565b6001600160401b03818116838216019080821115611dba57611dba611d45565b5092915050565b600082611dd057611dd0611d2f565b500690565b8181038181111561035e5761035e611d45565b808202811582820484141761035e5761035e611d45565b600060018201611e1157611e11611d45565b5060010190565b6020808252818101527f4f776e61626c653a2063616c6c6572206973206e6f7420746865206f776e6572604082015260600190565b6001600160401b03828116828216039080821115611dba57611dba611d45565b8082018082111561035e5761035e611d45565b634e487b7160e01b600052603260045260246000fd5b60ff828116828216039081111561035e5761035e611d45565b600181815b80851115611eea578160001904821115611ed057611ed0611d45565b80851615611edd57918102915b93841c9390800290611eb4565b509250929050565b600082611f015750600161035e565b81611f0e5750600061035e565b8160018114611f245760028114611f2e57611f4a565b600191505061035e565b60ff841115611f3f57611f3f611d45565b50506001821b61035e565b5060208310610133831016604e8410600b8410161715611f6d575081810a61035e565b611f778383611eaf565b8060001904821115611f8b57611f8b611d45565b029392505050565b60006116da8383611ef256fea2646970667358221220af2b6ddb9421f9d089a3914bda58e533ecc44d6eae1724fdd51fe8a5370e88f964736f6c63430008110033","linkReferences":{}},"methodIdentifiers":{"authorizationRequired()":"95410d2b","authorize(address)":"b6a5d7de","currentEpoch()":"76671808","deauthorize(address)":"27c97fa5","genesis(bytes,uint256,uint64)":"4ca49f51","genesisEpoch()":"b70e6be6","getBlockDifficulty(uint256)":"06a27422","getCurrentAndPrevEpochDifficulty()":"3a1b77b0","getCurrentEpochDifficulty()":"113764be","getEpochDifficulty(uint256)":"620414e6","getPrevEpochDifficulty()":"2b97be24","getRelayRange()":"10b76ed8","isAuthorized(address)":"fe9fbb80","owner()":"8da5cb5b","proofLength()":"f5619fda","ready()":"6defbf80","renounceOwnership()":"715018a6","retarget(bytes)":"7ca5b1dd","setAuthorizationStatus(bool)":"eb8695ef","setDifficultyFromHeaders(bytes)":"d38c29a1","setProofLength(uint64)":"19c9aa32","transferOwnership(address)":"f2fde38b","validateChain(bytes)":"189179a3"},"id":8}