{"abi":[{"type":"function","name":"DIFF1_TARGET","inputs":[],"outputs":[{"name":"","type":"uint256","internalType":"uint256"}],"stateMutability":"view"},{"type":"function","name":"ERR_BAD_ARG","inputs":[],"outputs":[{"name":"","type":"uint256","internalType":"uint256"}],"stateMutability":"view"},{"type":"function","name":"RETARGET_PERIOD","inputs":[],"outputs":[{"name":"","type":"uint256","internalType":"uint256"}],"stateMutability":"view"},{"type":"function","name":"RETARGET_PERIOD_BLOCKS","inputs":[],"outputs":[{"name":"","type":"uint256","internalType":"uint256"}],"stateMutability":"view"}],"bytecode":{"object":"0x60c2610039600b82828239805160001a60731461002c57634e487b7160e01b600052600060045260246000fd5b30600052607381538281f3fe730000000000000000000000000000000000000000301460806040526004361060515760003560e01c8063056e04ec1460565780638cc715691460715780638db69e60146079578063d4258ca7146081575b600080fd5b605f6212750081565b60405190815260200160405180910390f35b605f6107e081565b605f60001981565b605f61ffff60d01b8156fea264697066735822122082aa2ea5cf94b7028563441a38395c4f42a0f65b92b1bedbc90798fa375f163464736f6c63430008110033","linkReferences":{}},"methodIdentifiers":{"DIFF1_TARGET()":"d4258ca7","ERR_BAD_ARG()":"8db69e60","RETARGET_PERIOD()":"056e04ec","RETARGET_PERIOD_BLOCKS()":"8cc71569"},"id":0}